:020000040800F2
:108000003EB8F3960000000000040000E41A0000EF
:10801000000000000100000000000000000000005F
:108020000000000000000000000000000000000050
:108030000000000000000000000000000000000040
:108040000000000000000000000000000000000030
:108050000000000000000000000000000000000020
:1084000000300020A5940008059500080595000897
:108410000595000805950008059500080000000076
:1084200000000000000000000000000005950008AA
:108430000595000800000000059500080595000856
:10844000000000000000000000000000000000002C
:10845000000000000000000000000000000000001C
:10846000000000000000000000000000000000000C
:1084700000000000000000000000000000000000FC
:1084800000000000000000000000000000000000EC
:1084900000000000000000000000000000000000DC
:1084A00000000000000000000000000000000000CC
:1084B00000000000000000000000000000000000BC
:1084C00000000000000000000000000000000000AC
:1084D000000000000000000000000000000000009C
:1084E000000000000000000000000000000000008C
:1084F000000000000000000000000000000000007C
:10850000000000000000000000000000000000006B
:10851000000000000000000000000000000000005B
:10852000000000000000000000000000000000004B
:10853000000000000000000000000000000000003B
:10854000000000000000000000000000000000002B
:10855000000000000000000000000000000000001B
:10856000000000000000000000000000000000000B
:1085700000000000000000000000000000000000FB
:108580000000000000000000FFFFFFFFFFFFFFFFF3
:1085900010B5054C237833B9044B13B10448AFF33D
:1085A00000800123237010BD640000200000000043
:1085B000B89D000808B5034B1BB103490348AFF34E
:1085C000008008BD0000000068000020B89D000881
:1085D00001F0FF01102A2BDB10F0070F08D010F874
:1085E000013B013A8B422DD010F0070F42B3F6D178
:1085F000F0B441EA012141EA014122F007047FF091
:1086000000070023F0E80256083C85EA010586EAE7
:10861000010685FA47F5A3FA87F586FA47F6A5FA23
:1086200087F68EB9EED1F0BC01F0FF0102F007022F
:1086300032B110F8013B013A83EA010313B1F8D1DA
:108640000020704701387047002D06BF35460338BB
:10865000073815F0010F07D1013015F4807F02BFF4
:10866000013015F4C03F0130F0BC0138704700BF45
:1086700010B50446207800F021F914F8013F002BD2
:10868000F8D110BD30B595B00023334C8DF80B30C8
:108690008DF80C308DF80D303048FFF7E9FF0025DC
:1086A00001238DF80B508DF80C309DF80B0000F075
:1086B00021F99DF80C0000F011F99DF80D300133FF
:1086C000DBB28DF80D30ADF80E50ADF80E50BDF8A0
:1086D0000E309BB2092B29D9012300258DF80B30D0
:1086E0008DF80C509DF80B0000F004F99DF80C007B
:1086F00000F0F4F8ADF80E50BDF80E309BB2092B27
:10870000CAD89DF80B209DF80C309DF80D100091F3
:1087100004A8214600F022FF04A8FFF7A9FFBDF836
:108720000E3001339BB2ADF80E30E5E79DF80B201B
:108730009DF80C309DF80D10009104A8214600F022
:108740000DFF04A8FFF794FFBDF80E3001339BB274
:10875000ADF80E30BBE700BFEB9D0008D39D0008CD
:1087600008B500F00BF800F047F800F083F8024875
:10877000FFF77EFFFFF786FF279E000870B596B0D3
:10878000002403264FF4A0230CA80125CDE90C6397
:108790001094149400F0C2F80F23214602A8CDE9EA
:1087A0000235CDE90444069400F020FB104B11483B
:1087B0005A6942F400225A615B6903F40023019371
:1087C000019B07A94FF4C043CDE90735CDE9094620
:1087D00000F0B4FB2A4607484FF4005100F072FC49
:1087E00004482A464FF4804100F06CFC16B070BD7E
:1087F000001002400008004810B54FF4C06288B075
:108800000223CDE9032301210323CDE90513164CEF
:1088100007230793636943F400336361636903F4D7
:108820000033019303A94FF09040019B00F086FBB9
:108830000E48DFF83CC04FF41643C0E900C30023E4
:10884000C0E90233036183610C234361A36943F4EC
:108850008043A361A36903F480430293029B00F069
:1088600085FD08B010BD00BF00100240940000203C
:1088700000380140104B30B55A6942F400325A6159
:108880005B6987B003F400330093009B4FF480547E
:108890000123CDE901430025032301A94FF09040B6
:1088A000CDE9035300F04AFB2A4621464FF09040A1
:1088B00000F008FC07B030BD0010024007B541F2DF
:1088C00088338DF8070001220DF10701024800F0FE
:1088D00078FD03B05DF804FB9400002028B100226D
:1088E00003484FF4005100F0EDBB0122F8E700BF50
:1088F0000008004828B1002203484FF4804100F0EE
:10890000E1BB0122F8E700BF00080048024B1868ED
:10891000421C1A60704700BF8000002003682DE9E8
:10892000F743D907044611D423689A0700F18680DB
:1089300023681E0700F1F48023685D0700F13B8186
:10894000E269002A40F0CE81002021E0B7494B685F
:1089500003F00C03042B07D04B6803F00C03082B27
:1089600019D14B68DB0316D54FF4003393FAA3F209
:10897000096893FAA3F3B3FA83F303F01F03012208
:1089800002FA03F30B42CFD06368002BCCD1012055
:1089900003B0BDE8F0836268B2F5803F24D10B6874
:1089A00043F480330B60CB6AA06823F00F030343CA
:1089B000CB624AB3FFF7AAFF4FF400360546012702
:1089C00096FAA6F30A6896FAA6F3B3FA83F303F0CD
:1089D0001F0307FA03F31342A6D1FFF797FF431BC8
:1089E000642BEDD90320D3E70B6832B923F480332D
:1089F0000B600B6823F48023D4E7B2F5A02FF5D1E8
:108A000043F480230B60CAE7FFF780FF4FF4003682
:108A10000546012796FAA6F30A6896FAA6F3B3FA72
:108A200083F303F01F0307FA03F313423FF47CAF11
:108A3000FFF76CFF431B642BECD9D3E77B494B68F2
:108A400013F00C0F07D04B6803F00C03082B21D157
:108A50004B68DF031ED4022393FAA3F2086893FA4B
:108A6000A3F3B3FA83F303F01F03012202FA03F323
:108A7000034202D02369934289D10868F82393FA0C
:108A8000A3F3B3FA83F26369934020F0F80213432F
:108A90000B604DE72269012502B395FAA5F3B3FAFD
:108AA00083F303F1845303F584139B0002271D60B5
:108AB000FFF72CFF064697FAA7F30A6897FAA7F381
:108AC000B3FA83F303F01F0305FA03F31342D4D17F
:108AD000FFF71CFF831B022BEDD983E795FAA5F363
:108AE000B3FA83F303F1845303F584139B00022745
:108AF0001A60FFF70BFF064697FAA7F30A6897FA82
:108B0000A7F3B3FA83F303F01F0305FA03F3134249
:108B10003FF40EAFFFF7FAFE831B022BECD961E79F
:108B2000A269424D4248012112B391FAA1F3B3FA6E
:108B300083F303449B0002261960FFF7E7FE074614
:108B400096FAA6F396FAA6F396FAA6F36A6A96FA46
:108B5000A6F3B3FA83F303F01F0301FA03F31342FE
:108B60007FF4EAAEFFF7D2FEC31B022BE8D939E748
:108B700091FAA1F3B3FA83F303449B0002261A602F
:108B8000FFF7C4FE074696FAA6F396FAA6F396FAFE
:108B9000A6F36A6A96FAA6F3B3FA83F303F01F0307
:108BA00001FA03F313423FF4C7AEFFF7AFFEC31B56
:108BB000022BE8D916E71D49CB69D80034D4CB691C
:108BC00043F08053CB61CB6903F080530193019B49
:108BD0000125184E3368DA052ED5E368012B3BD109
:108BE0000B6A43F001030B62FFF790FE0226074673
:108BF000B1464FF0010896FAA6F396FAA6F3002BB9
:108C000068D00A6A99FAA9F3B3FA83F303F01F0351
:108C100008FA03F3134255D0002D3FF491AECB690F
:108C200023F08053CB618BE60025D2E70010024091
:108C30002081901000700040336843F480733360EB
:108C4000FFF764FE07463368DB05C6D4FFF75EFE18
:108C5000C01B6428F7D9C5E633BB0B6A23F00103B8
:108C60000B620B6A23F004030B62FFF74FFE022630
:108C70000746B1464FF0010896FAA6F396FAA6F316
:108C800063B30A6A99FAA9F3B3FA83F303F01F03F3
:108C900008FA03F31342BFD0FFF738FE41F28833DE
:108CA000C01B9842E8D99DE6052B0B6A03D143F01F
:108CB00004030B6294E723F001030B620B6A23F0B9
:108CC000040390E7FFF722FE41F28833C01B98426D
:108CD00091D987E696FAA6F34A6A93E796FAA6F33D
:108CE0004A6ACFE740494B6803F00C03082B3FF476
:108CF0004EAE022A4FF0807351D193FAA3F3B3FA28
:108D000083F303F1845303F584139B0000221A605C
:108D1000FFF7FCFD4FF000770646012597FAA7F311
:108D20000A6897FAA7F3B3FA83F303F01F0305FA6F
:108D300003F313422DD1D4E908034A68034322F414
:108D4000741213434B604FF0807393FAA3F3B3FA9A
:108D500083F303F1845303F584139B0001261D6004
:108D6000FFF7D4FD4FF00075044695FAA5F30A68A5
:108D700095FAA5F3B3FA83F303F01F0306FA03F39E
:108D800013427FF4E1ADFFF7C1FD001B0228ECD9CF
:108D900028E6FFF7BBFD831B022BBFD922E693FA1F
:108DA000A3F3B3FA83F303F1845303F584139B0015
:108DB00000221A60FFF7AAFD4FF000750446012655
:108DC00095FAA5F30A6895FAA5F3B3FA83F303F0CD
:108DD0001F0306FA03F313423FF4B6ADFFF796FD07
:108DE000001B0228ECD9FDE500100240514AF8B5FD
:108DF000136803F007038B4204461DD322689507CE
:108E000026D4D0072CD44B4A136803F007038B42B7
:108E10007CD823685A0700F1848013F008031FBF31
:108E2000454A2169536823F460531DBF43EAC103D7
:108E30005360002018460AE0136823F007030B4331
:108E40001360136803F007038B42D7D00120F8BDED
:108E50003948A568436823F0F0032B434360D0E70B
:108E60006268354D012A27D14FF4003393FAA3F0FD
:108E7000286893FAA3F3B3FA83F303F01F0302FA0B
:108E800003F30342E2D06B6823F003031A436A60E2
:108E9000FFF73CFD6368012B064641F288371ED17F
:108EA0006B6803F00C03042BADD0FFF72FFD801B84
:108EB000B842F5D90320CAE7022A0CBF4FF000736D
:108EC000022393FAA3F02E6893FAA3F3B3FA83F381
:108ED00003F01F03012000FA03F33342D2E7022B11
:108EE0000FD16B6803F00C03082B8CD0FFF70EFD3D
:108EF000801BB842F5D9DDE7FFF708FD801BB842BB
:108F0000D8D86B6813F00C0FF6D17CE7136823F008
:108F100007030B431360136803F007038B4295D1DB
:108F200077E70549E0684A6822F4E06202434A6054
:108F300073E700BF00200240001002402DE9F74F08
:108F4000DFF87C815C4C00234FF001090A6832FA9B
:108F500003F502D103B0BDE8F08F09FA03FA1AEA6B
:108F6000020200F09E804D6825F0100EBEF1020F47
:108F700014D14FEAD30C00EB8C0C03F0070BDCF898
:108F800020604FEA8B0B0F2707FA0BF726EA07073B
:108F90000E6906FA0BF63E43CCF82060D0F800B01C
:108FA0004FEA430C032606FA0CF72BEA070BFE43A5
:108FB00005F0030707FA0CF70EF1FF3E47EA0B072F
:108FC000BEF1010F076011D8876806EA070ECF6867
:108FD00007FA0CF747EA0E078760476827EA0A0A8C
:108FE000C5F300179F4047EA0A074760C768374044
:108FF0008E6806FA0CF63E43C660EE0051D5D8F8EE
:10900000186046F00106C8F81860D8F8186023F018
:10901000030707F1804706F0010607F58037019640
:1090200003F0030E019EBE684FEA8E0E4FF00F0C48
:109030000CFA0EFCB0F1904F26EA0C0C33D01F4E08
:10904000B04232D006F58066B04230D006F5806678
:10905000B0422ED006F58066B0420CBF042605262D
:1090600006FA0EF646EA0C06BE602668D74315F4EB
:10907000803F0CBF3E4016432660666815F4003FF3
:109080000CBF3E4016436660A66815F4801F0CBFF7
:109090003E401643A660E668AD0254BF3E4016430C
:1090A000E660013352E70026DAE70126D8E7022618
:1090B000D6E70326D4E700BF0004014000040048BF
:1090C000001002400AB18161704781627047000060
:1090D00002688168C36930B5056914682943456928
:1090E00024F41644294324F00C041943214311604D
:1090F0005168C468056A21F4405121435160946865
:10910000816924F4306429432143916062498A4291
:1091100016D101F55841096B01F00301013902290B
:1091200000F2B2805D4CB3F5004F615C77D1082945
:1091300072D8DFE801F0ACAC2471AC717171A4009D
:1091400057498A422CD101F5E631096B01F44031CF
:10915000B1F5003F00F090800BD8002900F094801A
:10916000B1F5803F00F09080B3F5004F54D001205E
:1091700015E0B1F5403FF7D1B3F5004F66D1416836
:109180004B0803F1F47303F59043B3FBF1F30020B4
:109190009BB223F00F01C3F342030B43D36030BDF6
:1091A00040498A4210D101F5E431096B01F44021B4
:1091B000B1F5002F60D004D8002965D0B1F5802F1B
:1091C000D0E7B1F5402FD6E737498A4210D101F5F3
:1091D000E231096B01F44011B1F5001F4CD004D805
:1091E000002951D0B1F5801FBCE7B1F5401FC2E79F
:1091F0002E498A42B8D101F5E031096B01F44001F2
:10920000B1F5000F38D004D800293DD0B1F5800F5A
:10921000A8E7B1F5400FAEE701200023B9E7082920
:10922000A5D801A353F821F06592000865920008C3
:109230004D9200086F910008659200086F91000838
:109240006F9100086F9100086F92000841684B0809
:1092500003F5740303F51053B3FBF1F39BB2D36032
:1092600000209CE741684B0803F5E103F4E74168FF
:109270004B0803F50043EFE7B3F5004FF7D1416822
:109280004B0803F5803380E7B3F5004FEAD141681E
:109290004B0803F5610378E700380140D09D0008D2
:1092A0000044004000480040004C00400050004096
:1092B000F8B5069F044615461E462268D36931EA72
:1092C00003030CBF01230023AB4201D0002014E0B4
:1092D0007B1CF3D097B923681A6822F4D0721A6005
:1092E0009A6822F001029A60202384F8693084F899
:1092F0006A30002384F868300320F8BDFFF706FBCE
:10930000801BB842D9D9E6E71FB504460021C166E3
:10931000FFF7FCFA226812680346100716D4226889
:109320001268520709D56FF07E4200924FF4800117
:1093300000222046FFF7BCFFA8B92023002084F8B4
:10934000693084F8680084F86A300DE06FF07E427E
:10935000009220460A464FF400110393FFF7A8FF3E
:10936000039B0028DBD0032004B010BD10B50446D9
:1093700028B390F8693003F0FF020BB980F8682039
:109380002268242384F86930136823F001031360F2
:109390002046FFF79DFE012811D023685A6822F469
:1093A00090425A609A6822F02A029A601A6842F043
:1093B000010220461A60BDE81040FFF7A5BF01205A
:1093C00010BD7FB51E4690F86930202B0D4604462F
:1093D00011464AD1002D46D0002A44D090F868307A
:1093E000012B42D0012380F868300023C36621237B
:1093F00080F86930FFF78AFA0346A4F85010A4F801
:109400005210B4F8522092B25AB900964021204628
:10941000FFF74EFFA0B9202384F8693084F8680074
:109420000FE0B4F852200096013A92B2A4F852200C
:109430008021002220460393FFF73AFF039B10B1DF
:10944000032004B070BDA2682168B2F5805F07D127
:1094500022692AB935F8022BC2F308020A85D0E73F
:1094600015F8012BFAE70120EBE70220E9E70000FD
:1094700008B50A4B1968024609B909491960186804
:10948000694602448A4206D900F03EF80C23036084
:109490004FF0FF3008BD1A60FCE700BF88000020D5
:1094A00018010020DFF84400016841F470010160F8
:1094B000BFF34F8FBFF36F8F002103E00C4B5B585E
:1094C000435004310B480C4B42189A42F6D30B4AD6
:1094D00002E0002313600432094B9A42F9D3AFF340
:1094E000008000F017F8FFF73BF9FEE788ED00E099
:1094F000809E00080000002064000020640000201E
:1095000014010020FEE70000014B1868704700BFFF
:109510000000002070B50D4D0D4C641BA4100026FA
:10952000A64209D10B4D0C4C00F046FC641BA41064
:109530000026A64205D170BD55F8043B9847013678
:10954000EEE755F8043B98470136F2E7789E0008AD
:10955000789E0008789E00087C9E00080EB400B536
:109560009CB01DAB029006906FF000410948079136
:109570000491094953F8042B05910068019302A94D
:1095800000F068F8029B00221A701CB05DF804EB32
:1095900003B07047000000200802FFFF2DE9F047EC
:1095A0008E689E4282460C4690461F4638D88A896D
:1095B00012F4906F32D025680969A5EB010965693D
:1095C00005EB450505EBD57501334B446D109D4208
:1095D00038BF1D46530531D5294600F047FB0646E6
:1095E00050B90C23CAF80030A38943F04003A3818B
:1095F0004FF0FF30BDE8F08721694A4600F0BEFA1F
:10960000A38923F4906343F08003A38126616561FD
:109610004E44A5EB09052660A5603E46BE4200D932
:109620003E4632462068414600F0B6FAA3682268FA
:109630009B1B3244A36022600020DBE72A4600F037
:109640006FFB06460028E1D12169504600F0BEFAC2
:10965000C7E700002DE9F04F98468B891B069DB0A7
:1096600007460D4614460ED50B6963B9402100F03C
:10967000FDFA2860286120B90C233B604FF0FF30D1
:10968000D1E040236B610023099320238DF829301A
:10969000CDF80C803023DFF8A8818DF82A304FF008
:1096A000010923469A4613F8012B0AB1252AF9D15C
:1096B000BAEB040B0BD05B46224629463846FFF72F
:1096C0006DFF013000F0AA80099A5A4409929AF875
:1096D0000030002B00F0A28000234FF0FF32CDE9D4
:1096E00005230AF1010A049307938DF853301A9366
:1096F0005446052214F8011B5148FEF769FF049AED
:10970000D8B9D00644BF20238DF85330110744BF89
:109710002B238DF853309AF800302A2B15D0079A56
:10972000544600204FF00A0C214611F8013B303B13
:10973000092B4ED9B0B1079214E0A0EB080309FA47
:1097400003F313430493A246D2E7039B191D1B683E
:109750000391002BBBBF5B4242F0020207930793C9
:10976000B8BF049223782E2B0CD163782A2B35D1E5
:10977000039B1A1D1B680392002BB8BF4FF0FF33E9
:1097800002340593DFF8C8A0217803225046FEF783
:109790001FFF40B14023A0EB0A0003FA00F0049B36
:1097A00003430134049314F8011B26488DF8281054
:1097B0000622FEF70DFF002838D0234B1BBB039B6E
:1097C000073323F0070308330393099B33440993BA
:1097D00067E70CFB02320C460120A5E700230134A9
:1097E000059319464FF00A0C204610F8012B303A29
:1097F000092A03D9002BC5D00591C3E70CFB012131
:1098000004460123F0E703AB00932A460F4B04A95B
:109810003846AFF30080421C0646D6D1AB895B06C2
:109820003FF52CAF09981DB0BDE8F08F03AB009356
:109830002A46064B04A9384600F07AF8EBE700BF49
:10984000429E00084C9E0008000000009D95000804
:10985000489E00082DE9F047164699468A680B692C
:10986000DDF820809342B8BF1346336091F843205F
:1098700007460C460AB1013333602368990642BF9C
:10988000336802333360256815F0060506D104F10C
:10989000190AE36832689B1AAB4226DC94F843202D
:1098A000131E226818BF012392062BD404F1430231
:1098B00049463846C04701301ED02368E568326803
:1098C00003F00603042B08BFAD1AA36822690CBF7E
:1098D00025EAE57500259342C4BF9B1AED180026C2
:1098E0001A34B5421AD1002008E0012352464946F5
:1098F0003846C047013003D14FF0FF30BDE8F08754
:109900000135C6E7E1185A1C302081F84300224493
:1099100094F8451082F843100233C7E7012322462A
:1099200049463846C0470130E6D00136D9E7000045
:109930002DE9FF470C469146277E0C99782F8046EB
:109940009A4604F1430207D8622F0AD8002F00F08C
:10995000D880582F00F0A38004F1420684F84270AA
:109960003AE0A7F16303152BF6D801A050F823F0D5
:10997000C9990008DD99000859990008599900080B
:109980005999000859990008DD990008599900086B
:10999000599900085999000859990008E99A00084E
:1099A0000D9A0008CB9A00085999000859990008A7
:1099B0000B9B0008599900080D9A00085999000856
:1099C00059990008D39A00080B681A1D1B680A6091
:1099D00004F1420684F842300123A3E025680868B8
:1099E0002E0600F104030AD505680B60002D03DA8A
:1099F0002D236D4284F843305E480A2319E015F0A8
:109A0000400F05680B6018BF2DB2EFE70B682568A3
:109A1000181D0860280601D51D6802E06906FBD5FF
:109A20001D8854486F2F0CBF08230A23002184F897
:109A300043106668A660002EA2BF216821F00401D1
:109A400021600DB9002E4DD01646B5FBF3F103FB96
:109A50001157C75D06F8017D2F46BB420D46F4D96C
:109A6000082B0BD12368DF0708D523696168994269
:109A7000DEBF302306F8013C06F1FF36921B22615F
:109A8000CDF800A04B4603AA21464046FFF7E2FE70
:109A900001304CD14FF0FF3004B0BDE8F0873548BD
:109AA00084F8457023680E681F0656F8045B0E6044
:109AB00014D5D90744BF43F0200323601DB92368A0
:109AC00023F0200323601023B0E7236843F0200332
:109AD00023607823284884F84530E3E75E0648BFD2
:109AE000ADB2E6E71646BBE70B68266860691D1D48
:109AF0000D6035061B6801D5186002E07106FBD5C4
:109B00001880002323611646BAE70B681A1D0A6005
:109B10001E68626800213046FEF75AFD08B1801BBE
:109B2000606063682361002384F84330A8E72369F9
:109B3000324649464046D0470130ABD023689B07A8
:109B400013D4E068039B9842B8BF1846A4E70123EA
:109B5000324649464046D04701309BD00135E36844
:109B600003995B1AAB42F2DCEBE7002504F119061E
:109B7000F5E700BF539E0008649E00080A44914226
:109B800000F1FF3300D1704710B511F8014B03F815
:109B9000014F9142F9D110BD884210B501EB02048A
:109BA00002D98442234607D8431EA14208D011F8A7
:109BB000012B03F8012FF8E7024401468A4200D145
:109BC00010BD13F8014D02F8014DF7E737B5002934
:109BD00048D051F8043C0190002BA1F10404B8BF17
:109BE000E41800F0D3F8204A01981368154633B9F9
:109BF0006360146003B0BDE8304000F0CDB8A3420C
:109C00000BD921686218934204BF1A685B686360CD
:109C100004BF521822602C60ECE71A465B680BB157
:109C2000A342FAD911685518A5420BD124682144E2
:109C30005418A3421160DDD11C685B685360214455
:109C40001160D7E702D90C230360D3E725686119B7
:109C50008B4204BF19685B68636004BF49192160C7
:109C60005460C7E703B030BD8C000020F8B5CD1CB0
:109C700025F0030508350C2D38BF0C25002D0646B0
:109C800001DBA94203D90C2333600020F8BD00F0AA
:109C90007DF821490A6814469CB9204F3B6823B9D6
:109CA0002146304600F062F838602946304600F020
:109CB0005DF8431C23D10C233360304600F06CF870
:109CC000E3E723685B1B17D40B2B03D923601C44E9
:109CD000256004E06368A2420CBF0B60536030460D
:109CE00000F05AF804F10B00231D20F00700C21AFF
:109CF000CCD01B1AA350C9E722466468CCE7C41C29
:109D000024F00304A042E3D0211A304600F02EF8DC
:109D10000130DDD1CFE700BF8C0000209000002093
:109D2000F8B5074614460E4621B9BDE8F84011467D
:109D3000FFF79CBF22B9FFF749FF25462846F8BD2B
:109D400000F030F8A0420FD221463846FFF78EFFD0
:109D500005460028F2D031462246FFF70FFF314674
:109D60003846FFF733FFE9E73546E7E738B5064DF4
:109D70000023044608462B60FFF77AFB431C02D100
:109D80002B6803B1236038BD04010020014800F0B6
:109D900011B800BF0C010020014800F00CB800BF52
:109DA0000C01002051F8043C181F002BBCBF0B58BD
:109DB000C018704770477047F8B500BFF8BC08BCC2
:109DC0009E467047F8B500BFF8BC08BC9E46704779
:109DD00004080254686973206973206E6F742069E7
:109DE0006E20417070204121200A0052756E6E690C
:109DF0006E6720422C20737769746368696E6720F0
:109E00006C65645F6F6B3A2025782C206C65645F0D
:109E10006572723A20257820436F756E74657220E2
:109E20003A202578200A005374617274696E6720A5
:109E30006170706C69636174696F6E20422E2E2EA2
:109E40000A00232D302B2000686C4C0065666745A6
:109E500046470030313233343536373839414243A2
:109E60004445460030313233343536373839616253
:109E70006364656600000000B585000891850008F0
:109E800004000020000000000000000000000000AE
:109E900000000000000000000000000000000000C2
:109EA00000000000000000000000000000000000B2
:109EB00000000000000000000000000000000000A2
:109EC0000000000000000000000000000000000092
:109ED0000000000000000000000000000000000082
:109EE00000000000076950011000200024B6E28E37
:109EF000DA26B533DFF0BA74F3B4CC9D90C85DA711
:109F00000BD6D5857BB895D94CD5630B01002000C5
:109F1000FE76000420CBAB690E8563692F2FA7CD99
:109F2000192FC406A3D4048266D90F097BDCACC800
:109F30002000000108518E3B7FE787367D99292C50
:109F4000FE2DE77D2C13E0CE71E30035E5FAE81B2A
:109F50000424A4823336BAA2201171DF554705BB11
:109F6000F56E2587A9089328AEFD74A2BFCDAA82FD
:109F7000CBD63EDFA6AAD651EF097C759E8363D56A
:109F800030360713126C6357CA5904BB70657EF8EC
:109F9000C4EFB0979D2AD7215712029BCCB520075A
:109FA000FC41011162D8F887027E1DB72DAC14ACBC
:109FB000B6911FCEC4D8F25402734044F8A6F0EE16
:109FC000ACB073429EE4F69674A2C2E21099740596
:109FD000C133F76CA500ED8CF1540653203D6F2181
:109FE0006279407AB0AD02A76E4AEEA15B0E8ED8C0
:109FF000D5661D136B7BB196669A4F93DCD29F9DFD
:10A000001C9FD73CCF1068CCCF5311E29036C38A47
:10A01000ABE491B1A88B056F14A9C8BE0EE094C142
:10A0200078A1006374EAC5EE7AD779BA2639144369
:04A030009FA9197853
:020000040801F1
:1073D000FFFFFFFFFFFFFFFFFFFFFFFFFFFFFFFFBD
:1073E000FFFFFFFFFFFFFFFFFFFFFFFFFFFFFFFFAD
:1073F000FFFFFFFFFFFFFFFFFFFFFFFFFFFFFFFF9D
:10740000FFFFFFFFFFFFFFFFFFFFFFFFFFFFFFFF8C
:107FF00077C295F360D2EF7F3552500F2CB679805F
:00000001FF
